:10000000801E00202929000073690000FD280000DF
:10001000FD280000FD280000FD2800000000000071
:100020000000000000000000000000003522000079
:10003000FD28000000000000E1210000FD28000074
:10004000E5220000E5220000E5220000E522000094
:10005000E5220000E5220000E5220000E522000084
:10006000E5220000E5220000E5220000E522000074
:10007000E5220000E5220000E5220000E522000064
:10008000E5220000E5220000E5220000E522000054
:10009000E5220000E5220000E5220000E522000044
:1000A000E5220000E5220000E5220000E522000034
:1000B000E5220000E5220000E5220000E522000024
:1000C000E5220000E5220000E5220000E522000014
:1000D000E5220000E5220000E5220000E522000004
:1000E000E5220000E5220000E5220000E5220000F4
:1000F000E5220000E5220000E5220000E5220000E4
:1001000053B94AB9002908BF00281CBF4FF0FF317E
:100110004FF0FF3000F00CB8ADF1080C6DE904CEE3
:1001200000F008F8DDF804E0DDE9022304B07047D0
:10013000704700BF2DE9F04F07468C460846099EE0
:1001400015463C461946002B40F0C6808242B2FA62
:1001500082F746D94FB1C7F1200E24FA0EFE00FAFD
:1001600007F3BD404EEA030CBC404FEA15481FFAA6
:1001700085FEBCFBF8F9220C08FB19C309FB0EFA3B
:1001800042EA03439A4528D9EB1809F1FF3004D21B
:100190009A4502D9A9F102002B44A3EB0A03A4B2A9
:1001A000B3FBF8F208FB123302FB0EFE44EA0344F1
:1001B000A64514D92C1902F1FF3303D2A64501D963
:1001C000931E2C44A4EB0E0443EA00401EB1FC40F5
:1001D000002334607360BDE8F08F4846DDE71346C6
:1001E000F0E702B9FFDE87BB831A01214FEA154E03
:1001F000AAB2B3FBFEFC200C0EFB1C330CFB02F876
:1002000040EA0343984563D9EB180CF1FF3004D260
:10021000984502D9ACF102002B44A3EB0803A4B229
:10022000B3FBFEFC0EFB1C330CFB02F244EA03445E
:10023000A2424FD92C190CF1FF3304D2A24202D9A9
:10024000ACF102032C44A41ABEE7C7F1200C20FA3B
:100250000CF800FA07F324FA0CFCBD404CEA030248
:100260004FEA154EABB2B8FBFEFC110C0EFB1C8026
:100270000CFB03F941EA0040814504FA07F423D955
:1002800028180CF1FF3104D2814502D9ACF10201EA
:100290002844A0EB090092B2B0FBFEFC0EFB1C0050
:1002A0000CFB03F842EA004398450FD9EB180CF118
:1002B000FF3204D2984502D9ACF102022B44A3EBE1
:1002C000080342EA014191E76146E2E76246F6E748
:1002D0006046A2E76346B6E7834205D90EB1C6E998
:1002E00000700021084676E7B3FA83F181B98342B2
:1002F00001D3BA420AD8BC1A60EB030301209C4622
:10030000002E68D0C6E9004C002164E70846F7E7F4
:10031000C1F1200C8B4022FA0CF41C4302FA01F5C7
:1003200000FA01F327FA0CF220FA0CFB4FEA144909
:100330001343BBFBF9F81FFA84FE09FB18BB1A0C28
:1003400008FB0EFA42EA0B42924507FA01F73ED942
:10035000A21808F1FF3004D2924502D9A8F1020098
:100360002244A2EB0A029BB2B2FBF9F809FB182265
:1003700008FB0EFE43EA024296452AD9A21808F16C
:10038000FF3304D2964502D9A8F10203224443EA7E
:100390000040A0FB0593A2EB0E029A42CE4698467F
:1003A00002D306D14F4504D2B9EB050E63EB040826
:1003B000013886B1B7EB0E0362EB080707FA0CFCB5
:1003C000CB404CEA0303CF40C6E900379CE74046E8
:1003D000C7E74346DBE73146FDE600002DE9F74F6E
:1003E0000A78022A0C4604D0052A56D003B0BDE88C
:1003F000F08F2F4D192005F05DFED4F80490296888
:10040000E368A9F80A30F1B1A0689AB2441CA41AB2
:100410004FF00A08B4FBF8F608FB1644CDE90003D8
:100420002448234605F0B6FE2F68092F4FF000063A
:100430002EDD214805F0AEFE204B01221A702B68FC
:1004400033442B60D2E71E480A4601320A2A00F8DC
:10045000011BFAD1D8E73A1992FBF8F108FB1122F7
:1004600019F80210A1F13102022A05D85344584666
:10047000995505F08FFE01362B683344092BD8DCE3
:1004800001372B68B9F80A201A449742E3DBD0E71A
:10049000DFF82CA0DFF82CB0F3E783680A49DC68AA
:1004A0000A226423A44603B0BDE8F04F604700BFB2
:1004B000D8090020407D00008B7D00001A13002029
:1004C00010130020737D00001B1300202DE9F8435A
:1004D000334C206806F087FF28B9324805F05AFEF1
:1004E0000120BDE8F883304806F07DFF08B92F48A9
:1004F000F4E72F4805F0BCFD0028F1DB2D4805F09E
:10050000B7FD0028ECDB2C4805F0B2FD0028E7DB46
:10051000206883681B68002BE2D028490022984796
:100520000028DDD12068836825495D686D224FF081
:10053000FF33A8470028D3D1206883682149DC68AD
:100540000A226423A0470028CAD11F4D1A4F4FF436
:100550007A7005F0AFFD2B78002BF8D01B4EDFF83A
:100560005480DFF84C90002416F8013B312B0ED15B
:10057000484605F097FD4FF47A7005F09BFD013475
:100580000A2CF1D1124A00232B701360DFE7322BC3
:1005900001D14046EDE7332BF1D13846E9E700BF02
:1005A00000000020767D0000E47700008E7D0000D2
:1005B000587A0000607A0000687A0000DD030000CD
:1005C000500100201B1300201A13002010130020DC
:1005D000D80900202DE9F04F8BB00646DDF850B069
:1005E000049314460F46B1B1B578059535BBAA46BC
:1005F000F378019313B11BF0020F22D1BAF1000F6F
:100600001FD124B13A463146204606F0D6F9384685
:100610000BB0BDE8F08F90F80190B578007805EB4D
:10062000800535448A46CA45DED20135284606F0A3
:10063000B4F9013005440AF1010AF4E70BF0010AAC
:10064000D6E796F800904FEA8903039306EB8909F1
:10065000002C5BD1BAF1000F32D04D444D451DD175
:10066000A946DDF804A0DFF804C281490BF00508B3
:100670004D46CA440BF00202AA45C8D015F8010B3A
:1006800056F82000604524D3884222D21BF0010F87
:1006900039D1B8F1000FEFD1013FEDE719F8013B77
:1006A00056F8230006F079F9159B013033B1169BFB
:1006B0009C423EBF159B23F8140001340744CDE74C
:1006C0002DB11BF00404CCD0A9445446C9E72C46F4
:1006D000C7E7002AD0D04FF00009019206F05DF97B
:1006E000159BDFF888C1019A6149013033B1169B2F
:1006F0009C423EBF159B23F8140001340744B9F116
:10070000000FB9D0C5E74FF00109E6E7039A31467B
:10071000204606F052F9039BE3180293BAF1000F4A
:100720000AD049462A4606A806F047F90023A370D6
:10073000A944DDF808800DE0BDB11BF0040F14D012
:100740002A464946029806F038F9029BA94403EB71
:1007500005085546019B0BF0020E0BF001004A46BE
:1007600009EB030C0BF0040B25E00025A570E0E776
:1007700012F8013BDFF8F4A056F82310514503D3DB
:10078000DFF8ECA0514505D3BEF1000F03D108F806
:10079000013B10E038B10DF1280A691C554405F8F9
:1007A000103CCDB207E0BBF1000F04D008F8013BCC
:1007B000A3780133A3709445DAD16378019A2B446E
:1007C0006370029BA8EB030BA378ABEB030B059BB9
:1007D00084F803B01344FF1A039BFF1A019B4046A1
:1007E0003A4609EB0301B84406F0E7F8A8EB040029
:1007F000002D3FF40DAF049B1C1AA54202D36FF0ED
:100800001B0005E74FF0000906AB159A13F80930F5
:1008100056F82310C2B132F81970C24604F1FF3BFA
:100820000AF8013B97B13A46504606F0C6F809F17E
:1008300001094D45ABEB07040AEB0708E4DC049B18
:100840001F44A7EB0B00E3E6159FE6E70139012300
:100850009C42D4D011F8012F08F80320581C12B97B
:100860001F1EE4DACBE70346F2E700BF647700001F
:10087000DC8400000B6801330B60014B1B681847D8
:1008800004000020014B1860704700BF04000020E6
:1008900007B50B46002102460191034801A900F06B
:1008A000F9F803B05DF804FB7508000030B585B0B9
:1008B000CDE901010446002501A90548039500F092
:1008C000E9F8DDE902309842B8BF255405B030BDE3
:1008D0006F6100002DE9F84FB0F8189019F0080882
:1008E000044693460DD001290CBF49F0100949F088
:1008F0002009A0F818908BF31188BFF36F8FBDE823
:10090000F88F09F00709022907D1204605F05CFCA1
:100910000028F0D00128238B4ED16769218B002F4E
:1009200015DA256821F00701C4E9008841F00101CA
:1009300021830026218B01F0070ACA4502D0A36853
:10094000002B5AD10DB9002E71D0002356E001F0D2
:1009500007035A1F012A1ED821F00701062B25681C
:1009600089B2C4E900880AD13DB1638B2A46126876
:1009700001339BB2002AFAD1638341F00201218343
:10098000204605F021FC06460028D3D0238B43F0F7
:1009900020032383CDE7042B0CD121F0070189B27A
:1009A0002183204605F010FC05460028C1D041F007
:1009B000200121830025BCE7032809D1226923F007
:1009C0000703166843F00603238300252F46B1E78B
:1009D000042806D1226923F00703566843F0040374
:1009E000F2E7052806D1226923F00703966843F051
:1009F0000503E9E700252E46E8E7012341F0080159
:100A000021838BF31188BFF36F8FFBB985BB16B1C0
:100A10001F492046B0474FF02003EFF3118B83F3BB
:100A20001288BFF36F8F238B23F008032383238B5C
:100A3000DA0625D523F0100323830121B4F818909A
:100A400009F0070900297FF45EAF54E7A168002987
:100A5000DCD0D1F80090D1F804B03B465246204695
:100A6000D847B9F1000FD1D04946D9F80090F2E744
:100A700029463B46524620462D6805F0C1FBC5E796
:100A800013F020011EBF23F0200323830221D5E7AA
:100A90002D6200002DE9F04F91B08B4602909246F6
:100AA0001C4600259AF8000008B928465FE325286F
:100AB0000AF1010707D0029B594698470028C0F267
:100AC0005683013512E2182200210AA805F080FFA2
:100AD0009AF80130252B78D000221046964694468D
:100AE0001646394617F8013B2B2B00F09D8000F28B
:100AF0009480202B00F09B80232B00F09B802EB154
:100B00009DF8306046F004068DF83060BCF1000FAF
:100B100005D09DF8306046F008068DF83060BEF1D3
:100B2000000F05D09DF8306046F010068DF830605B
:100B300028B19DF8300040F020008DF830002AB137
:100B40009DF8302042F040028DF830209DF8302092
:100B500002F04400442803D16FF386128DF8302050
:100B60009DF830202A2B42F080028DF830207BD176
:100B70009DF8312042F001024B1C8DF831201A788B
:100B80002E2A9DF831200CBF0121002161F3410282
:100B90008DF8312074D15A782A2A6AD00133002185
:100BA0000A26184610F8012BA2F13007092F40F24F
:100BB0008E809DF830200E91C2F3400040EAD17142
:100BC00061F341028DF830205AE00AF102078DF8F6
:100BD00033309DF83130D90740F1498154F8049BF6
:100BE000B9F1000F07DA9DF8302042F004028DF8C9
:100BF0003020C9F100095A0740F1428154F8048BB2
:100C0000B8F1000F80F241819DF831306FF341035C
:100C10008DF831304FF0FF3837E12D2B0CD0302BD1
:100C20007FF46DAF01225CE74FF0010C59E74FF004
:100C3000010E56E7012054E7012652E70CFB0202A1
:100C4000303A33461E4616F8010BA0F13007092F43
:100C5000F4D9994293D09DF830100D92D20F62F3DF
:100C600041018DF830108AE70B4600224FF00A0C44
:100C7000E8E79DF8312042F004028DF8312002337C
:100C80001F4617F8012B6C2A41D025D8682A2BD093
:100C90006A2A46D04C2A4CD01F4617F8012B9DF8E3
:100CA00031308DF83320782A00F2D980572A4DD878
:100CB000412A03D0453A022A00F2D1809DF8323011
:100CC000042262F302038DF8323001239EE006FB1A
:100CD00001213039034664E7742A26D07A2ADBD111
:100CE0009DF8313006220DE05A78682A9DF83120AF
:100CF00006D1012161F3C6028DF831209F1CCCE79B
:100D00001346022262F3C6038DF83130C5E75A78E4
:100D10006C2A9DF8312001D10421EBE71346032210
:100D2000F0E79DF831300522ECE79DF831300722DD
:100D3000E8E7BDF8303023F4F04323F0020343F436
:100D4000804343F00203ADF83030A6E7A2F158012A
:100D5000202900F2848001A050F821F0210E00002B
:100D60005F0E00005F0E00005F0E00005F0E0000CF
:100D70005F0E00005F0E00005F0E00005F0E0000BF
:100D8000BD0C00005F0E0000210E0000E10D000010
:100D9000BD0C0000BD0C0000BD0C00005F0E00008B
:100DA000E10D00005F0E00005F0E00005F0E00000E
:100DB0005F0E0000290E0000210E0000450E00000D
:100DC0005F0E00005F0E0000450E00005F0E000089
:100DD000210E00005F0E00005F0E0000210E0000DB
:100DE0009DF83210012003F0780360F30201402BDC
:100DF0008DF8321002BF9DF8301041F001018DF8DE
:100E00003010632A31D1003B18BF01239DF83020F8
:100E1000C2F340010B4363F341028DF83020D8E662
:100E20009DF832100220DEE79DF8322003F07803AF
:100E3000A3F14000032161F3020243428DF8322006
:100E40004341E3E79DF83220032113F0780F61F36B
:100E500002028DF8322014BF01230023D6E79DF84B
:100E6000303043F001038DF830300023CEE79DF998
:100E70003020002AB4BFDDF834904FF0FF39BAE6D5
:100E80009B077FF5C7AEDDF838809DF83110002351
:100E9000CDE90D339DF8323003F00703012BC1F388
:100EA000C30138D1CB1E042B22D8DFE803F003099D
:100EB0000921210054F8043BDA17CDE90A3206E093
:100EC000073424F00704F4E80223CDE90A239DF84F
:100ED000303013F0030656D002983B46524659462E
:100EE00005F06DFA0028C0F242810544BA46D9E502
:100EF00054F8043B01294FEAE372CDE90A3205D1E7
:100F00009DF828300A9300230B93E0E70229DED1F5
:100F1000BDF92830D0E7022B23D1CB1E042B13D8E8
:100F2000DFE803F0030A0A12120022680A92002383
:100F3000201D0B930446CAE7E01D20F00700F0E8EF
:100F40000223CDE90A23F5E754F8043B0A9301296B
:100F50004FF000030B93D3D00229B8D1BDF828304D
:100F6000D0E7042B09D1E31D23F0070303F10804A4
:100F7000D3E90023CDE90A23A9E7032B04BF54F8E2
:100F8000043B0A93A3E79DF833007828AED8622883
:100F900022D825283FF48FAD5828A7D10DF126037C
:100FA0000093DDE90A0104AB0CAA05F0C2F9824600
:100FB000B8F1000F0DF126000CDB9DF83020A0EBFE
:100FC0000A036FF3861298458DF8302002D9A8EBFA
:100FD00003030D9380463DE06338152886D801A2AF
:100FE00052F820F065100000C9100000ED0E00005E
:100FF000ED0E0000ED0E0000ED0E0000C910000027
:10100000ED0E0000ED0E0000ED0E0000ED0E0000F4
:1010100023110000F1100000F5100000ED0E00009B
:10102000ED0E00003D100000ED0E0000F11000007C
:10103000ED0E0000ED0E0000F1100000B8F1000F01
:10104000DDF828A00ADB4146504605F0ADFC0AEB6E
:1010500000080026BAF1000F0CD147E7504605F012
:101060009CFCF4E70A9B8DF8103000260DF1100A65
:101070000DF11108A8EB0A0306B101339DF83220E7
:10108000D00668D5023352060D9948BF0E9A0B441C
:1010900048BF9B18B9F1000F76DD9DF83020A9EB11
:1010A0000309C2F38003039353076DD4500661D53F
:1010B00046B1029B594630469847002857DB039BB0
:1010C00001351E46302356E01E070FD413F01006DC
:1010D00018BF2026DDE90A23002BBFF65FAF52427E
:1010E00063EB4303CDE90A232D2657E72B26F1E7CF
:1010F000002653E70A9840B30DF1260300930CAA8B
:1011000004AB002105F015F9BDF8323003F0EF0310
:1011100043F4F04343F010038246ADF8323000262A
:1011200046E70A9B07293FF6E1AEDFE801F00C0431
:10113000060C08080C0C1D70D8E61D80D6E6EA17D0
:10114000C3E90052D2E61D60D0E6DFF8C8A006462B
:101150000AF105088EE7110748BF013393E71846E7
:1011600003935946029B98470028039B04DA11B069
:10117000BDE8F08F20234D444A46002AA5EB090123
:1011800009F1FF39EBDC0D4636B1029B594630467A
:1011900098470028EBDB01359DF83230D90601D4A1
:1011A0001A0706D5029B5946302098470028DEDBF7
:1011B00001359DF83230DB0607D59DF83300029BE0
:1011C000594698470028D2DB01350D9E2E44731BEB
:1011D000002B16DC029843465246594605F0EFF8BC
:1011E0000028C4DB0544A944A9EB0503002B7FF7C5
:1011F0007DAE029B5946202098470028B7DB013579
:10120000F2E7029B5946302098470028AFDB0135B2
:10121000DDE700BFA97D000008B54FF02002EFF325
:10122000118382F31288BFF36F8F01F01FFD034813
:1012300004F0B0FF00F0E6FEFCE700BFAF7D000069
:1012400030B51049104889B0002206F05AFA0F4D07
:101250000F4900220023CDE9062300240E23CDE907
:101260000334CDE901440B4B00944FF440722846FF
:1012700003F042FE0849284606F00DF9204609B061
:1012800030BD00BF9D1200004806002080060020EF
:1012900060170020C1140000D87D0000014803F051
:1012A00089BF00BF38020020014B53F8200070476F
:1012B000707A000070B5124BBFF35B8F53E8005F8C
:1012C0006A1C43E800210029F8D1BFF35B8F2DB9D8
:1012D0000C4C0D4E361B3611B54200DB70BD237B26
:1012E00053B123689B690BB1204698476368042279
:1012F0001968204600F092F901351034ECE700BF80
:10130000E40900200C7A00002C7A000010B5044C8F
:10131000237813B9034803F04DFF0123237010BD58
:1013200025130020380200200C4BBFF35B8F53E8DD
:10133000002F013243E800210029F8D1BFF35B8F71
:1013400058B1BFF35B8F064B53E8002F013A43E8D7
:1013500000210029F8D1BFF35B8F7047E00900201E
:10136000DC0900200020064BBFF35B8F024653E8E8
:10137000000F43E800210029F9D1BFF35B8F7047CC
:10138000E0090020F8B5FFF7EDFF0A4C0A4D2D1BD0
:1013900007462D110026AE4200DBF8BD63685B797D
:1013A0002BB123681B6913B1394620469847013693
:1013B0001034F0E70C7A00002C7A00000149024852
:1013C00005F0C8B87C7A0000E8090020084A08B592
:1013D00000231370074A1360074B084A1A604FF442
:1013E000004000F0FBFABDE80840FFF7E7BF00BF90
:1013F00026130020E009002008000020FD670000FF
:10140000014600220148002305F0C5B8E809002084
:10141000014805F056B900BFE8090020014601481F
:1014200005F09BB9E8090020014805F0CAB900BFE2
:10143000E80900201D4B1B782DE9F041054603B952
:1014400088B305F0E2F9064618B16DB13046FFF7F2
:10145000E5FF2DB9164B1B68002B01DDFFF792FF4E
:10146000BDE8F041FFF7E0BF124BBFF35B8F53E8DD
:10147000002F013A43E800210029F8D1BFF35B8F28
:101480000D4C0E4F3F1B3F11A846B845DEDA63688E
:101490005B7923B1236831461B682046984708F1E1
:1014A00001081034F1E7BDE8F08100BF25130020EA
:1014B000E0090020DC0900200C7A00002C7A0000F2
:1014C00010B5FFF7F7FE04F0AFF90C4B186030B120
:1014D0000B4B1B68092B02DD0A4803F06BFE094C1D
:1014E0000020FFF7A7FF0028FAD14FF0FF324FF09E
:1014F000FF33204603F07EFEF2E700BF200A002003
:10150000DC0900203802002013B51D4BBFF35B8FB0
:1015100053E8002F511C43E800100028F8D1BFF316
:101520005B8F184B1B7883B14FF02003EFF31184CE
:1015300083F31288BFF36F8F0020FFF77BFF84F3E4
:101540001188BFF36F8F02B010BD0F4B1B68002BCB
:10155000F9D052B900220023CDE900230B484FF403
:101560000042002304F050FBEDE70A2AEBD10748C4
:1015700006F0D3F8064802B0BDE8104003F01ABEEA
:10158000DC09002026130020200A00204806002045
:1015900038020020064B10B51B68044698472146C8
:1015A000A060044805F06DF8BDE81040FFF7ACBF3F
:1015B00008000020E8090020F8B50E4F3D7875B905
:1015C0000D4C0E4EFFF776FE361B3611B54207DB8B
:1015D0000020FFF72FFF0028FAD101233B70F8BD50
:1015E00063685B791BB1236820465B6998470135C6
:1015F0001034EBE7261300200C7A00002C7A000050
:10160000044A054B9B1AB1EBD30F34BF52F831009B
:1016100000207047C47900000C7A0000054A436836
:10162000801A001101300122187119605A71FFF7F8
:101630006DBE00BF0C7A00000EB403B503AB0146CB
:1016400053F8042B04480193FFF724FA02B05DF825
:1016500004EB03B0704700BF4B6800002DE9F04772
:101660001D46089B1746DA0604460E4605D4990621
:101670004CBF2A492A49FFF7DFFFDFF8A8904FF057
:101680000008A8452ADBDFF8A080DFF8A090DFF88B
:1016900094A00025BD422FD2725D49462046FFF737
:1016A000CBFF0135102D20D12149DFF87880DFF8FC
:1016B00084902046FFF7C0FF0025AF4228D9725D15
:1016C000A2F120035F2B28BF2E2249462046FFF7B8
:1016D000B3FF0135102D14D1BDE8F08749462046EF
:1016E000FFF7AAFF08F10108CBE76A07D2D15146FC
:1016F0002046FFF7A1FFCDE741462046FFF79CFFBC
:10170000CFE76B07D9D141462046FFF795FFD4E7D5
:1017100041462046FFF790FFDBE700BF8C7D0000CD
:101720008B7D0000EC7D0000EA7D0000E47D000080
:10173000EE7D0000737D00002DE9F04F87B01C4660
:1017400001F0010305929DF84090BDF948A0049373
:101750000746884601F0020B01F0080605F059F82B
:101760000246002844D03A493846FFF765FF05464F
:10177000BBF1000F08D018F0440F3BD13549224689
:101780003846FFF759FF0544049B53B1324B3349A8
:1017900053F82920324B3846002A08BF1A46FFF773
:1017A0004BFF3EB12F4B304953F829203846FFF705
:1017B00043FF0646BAF1000F16DB059B002B45D010
:1017C000012303FA09F9294B294C19F0100F18BF0E
:1017D0001C4651469DF84400FFF712FF2146024681
:1017E0003846FFF729FF0644701907B0BDE8F08FAF
:1017F0000546BDE71F4B18680028C4D01E4B4FF4A8
:101800007A781B68B4FBF3F44FF46161B4FBF0F336
:1018100000FB134408FB04F44FF03C0CB3FBF1F263
:1018200001FB1231B4FBF0FEB1FBFCF300FB1E44E4
:101830000CFB131108FB04F40091B4FBF0F00F490A
:10184000CDE901E03846FFF7F7FE9CE7084CC0E71A
:10185000FE7D0000027E0000907A0000277E0000DE
:10186000F07D0000A47A00002A7E0000FA7D0000CE
:10187000F57D0000240A0020280A00200B7E0000CD
:1018800038B50C46E107054603D5084A0849FFF775
:10189000D3FEE20608D4A30628464CBF05490649F4
:1018A000BDE83840FFF7C8BE38BD00BFF07D00007E
:1018B000277E00008C7D00008B7D00002DE9FF4716
:1018C0000B8813F4E07F06460C469046C3F382195A
:1018D0004DD00A784B68C2F3C202002B44D0254990
:1018E0005B1A43F3CF03CDE90123CDF80090A36841
:1018F000002241463046FFF71FFF8246254655F835
:10190000103BC3F3492353B11B4F1C481C492B46C2
:101910003246B9F1000F08BF384604F0DBFB678898
:10192000C7F3CB0797B12368C3F349231D44102F96
:101930003C4628BF10242946CDF800805346224655
:101940003046FFF78BFE3F1B2544F0D1B9F1000F65
:1019500004D04A4641463046FFF792FF304604B075
:10196000BDE8F04704F064BF4FF0FF33BBE7CA4661
:10197000C4E700BFC4790000816800004B68000024
:10198000950A000073B542F20F738B4228BF0B46D5
:1019900005680F4A04460521684604F008FC6368A0
:1019A0000C495B6806460B22284604F034FF636846
:1019B0003246694628465B6804F02DFF6368064995
:1019C0005B681B22284604F026FF02B070BD00BFF2
:1019D0001A8400006C7E0000507E0000084A10B59A
:1019E0000123084C13600021A04204D801B1136008
:1019F000054B186010BD40085B000121F4E700BFF3
:101A0000280A002040420F00240A0020F8B5074FA2
:101A10000D4604464618B44201D12846F8BD386840
:101A200014F8011B8368DB699847F4E7440A002037
:101A3000014B002019607047340A0020014B024A14
:101A40001A607047440A00202C780000024B0348BB
:101A500001221A7004F0ECBE27130020D87A00008F
:101A60000148FFF78FBF00BFD87A0000064B10B5C2
:101A700018680C46FFF718FC21460346BDE81040E5
:101A800002480F22184700BF340A0020D87A00000D
:101A9000014B01221A70704739130020014B0020BE
:101AA00019607047500A0020024B034801221A7047
:101AB00004F0BEBE3A130020087B00000148FFF787
:101AC00061BF00BF087B0000064B10B518680C46CC
:101AD000FFF7EAFB21460346BDE8104002480F220B
:101AE000184700BF500A0020087B0000054B1B78F8
:101AF0001BB141F2883005F000BEA420002103F0A4
:101B000079BE00BF3A1300202DE9F047DFF88C9032
:101B1000DFF88CA080460F46042499F80050CDB918
:101B20004FF0FF334FF0FF32504603F089FA3A4648
:101B30004146284602F0A0FF0646504603F0F8FA58
:101B4000184DFEB101232B7099F800306BB938465F
:101B5000BDE8F0873A464146002002F08DFF064678
:101B6000EEE75CB92C704FF0FF34002002F0D0FF9C
:101B70000028ECD02B78002BF3D1E8E7013CFFF7ED
:101B8000B5FFF2E72B7813B1013C04D12C702B7810
:101B9000002BC2D1DBE7FFF7A9FFF8E73A130020DB
:101BA00010020020391300202DE9F84305464FF0BC
:101BB0002003EFF3118683F31288BFF36F8F0E4B70
:101BC0001C689CB10D4FDFF838804FF00C09D4E948
:101BD0000132002D08BF13462BB198F8142009FBE1
:101BE00002F2B85C98472468002CF0D186F3118883
:101BF000BFF36F8FBDE8F883600A0020680A0020F9
:101C0000001100204209012300F01F0003FA00F038
:101C1000074BBFF35B8FC04303EB820353E8002FF6
:101C2000024043E800210029F8D1BFF35B8F7047E1
:101C3000740A002038B51A4B1C7DBFF35B8F04F08B
:101C40001F0301229A40174B6109D04303EB810324
:101C500053E8001F01EA000543E8005CBCF1000FF7
:101C6000F6D1BFF35B8F114213D00F4B0F4D8BB1E9
:101C70000C236343EA18E85C517804F0C1FE0020AD
:101C8000FFF792FF0C235C432A1900232B51C2E972
:101C9000013338BD83F31188BFF36F8FEFE700BFC7
:101CA00000110020780A0020016A0000680A002064
:101CB0002DE9F843324B334A1C7DBFF35B8F630938
:101CC0004FEA830952F823302F4EBFF35B8F04F0A5
:101CD0001F0843FA08F313F0010F07460AD1014623
:101CE000204600F069F828B107C80C2303FB046301
:101CF00083E807000C236343F218F55C2DB92046F6
:101D0000FFF780FF2846BDE8F8837B1C0FD0D2F890
:101D100008C01E481E4A4FF4004500210023ECFB7A
:101D20000501FEF7EDF90121381A05F0C8FC03F0B2
:101D3000E1FA0120FFF738FFBFF35B8F012303FABD
:101D400008F8144B994459E8003F43EA080349E86E
:101D50000032002AF7D1BFF35B8F0F4B33B10C2356
:101D60006343F218F05C517804F03EFEFFF762FF27
:101D70002046FFF747FF03F08DFC0120C3E700BFBB
:101D800000110020740A0020680A00203F420F0062
:101D900040420F00780A0020E9690000054BBFF3BC
:101DA0005B8F53F82000BFF35B8F003818BF012012
:101DB000704700BF7C0A00202DE9F04F85B00F4628
:101DC00003A900F047F8DFF88080DFF880A0441E08
:101DD00024B24FF0000B631C04D10026304605B03E
:101DE000BDE8F08F039A04EB440302EB830612F87C
:101DF0002300FFF7D3FF054610BB70684FF400497E
:101E0000C4462946E0FB09C152465B466046FEF7E0
:101E100077F90190B068C4462946E0FB09C15B46EA
:101E200052466046FEF76CF9094B1B68591C01D0FD
:101E3000834205D97A1CD1D0019B1844B842CDD930
:101E4000013C24B2C7E700BF3F420F0040420F00F1
:101E50000C00002008B9024B0B600020704700BF47
:101E6000187B0000014803F075BF00BF187B00001D
:101E700010B5044618B90D4B0D485B68984761686A
:101E800008290DD031F004030AD011F0020108D066
:101E90000848214605F0D0FA002323600023636040
:101EA00010BD2068142204F093FDF7E7F000002035
:101EB000A57E0000980A002008B508B34368042BEB
:101EC00010D101220368BFF35B8F53E8001F002984
:101ED00003D143E800200028F7D1BFF35B8F0BD17B
:101EE000002008BD53B100684FF0FF324FF0FF33C0
:101EF00003F0A6F80028F3D00348F2E70348F0E720
:101F00006FF4E040EDE700BFE98FFFFFEA8FFFFFCE
:101F100008B5D0B14368042B11D100220368BFF388
:101F20005B8F53E8001F012903D143E800200028FC
:101F3000F7D1BFF35B8F074808BF104608BD3BB120
:101F4000006803F0F5F80020F8E76FF4E040F5E7EB
:101F50000148F3E7E98FFFFFEA8FFFFF10B5044662
:101F600018B9164B16485B6898476368042B23D052
:101F7000082B21D0CBB92368BBB912484FF0FF32F0
:101F80004FF0FF33214602F057FF08B923681BB911
:101F90000A4B0D485B68984720681422002104F022
:101FA00017FD636843F002036360206805F087FA59
:101FB000636843F00103636010BD00BFF0000020C0
:101FC000A57E0000980A0020CB7E000008B50649D7
:101FD00006484023142205F014FABDE808400449DD
:101FE000044803F017BF00BFB40A0020980A00207D
:101FF000307B0000207B0000014910220A607047FE
:1020000010ED00E072B6404080F31188BFF36F8F8F
:10201000BFF34F8F30BF62B6BFF36F8F704700BF03
:1020200072B6494081F3118820BF80F3118862B6EF
:10203000704700BF2DE9F047814600AF0C460029EC
:102040004CD06E468AB06D46D1E90012A36827488D
:10205000A8464FF0050AC5E90501C5E9072348F878
:1020600010AF2348424600234FF4215104F030FCC6
:10207000D4E9031263691F48C5F810A0B546C5E945
:102080000501AD46C5E907231948424600234FF430
:10209000215104F01DFCB54688B06D46E369164A2F
:1020A000A8464FF0030AC5E9052348F810AF1048C9
:1020B000424600234FF4C25104F00AFC0F4AA369C0
:1020C000C5F810A0B546C5E90523AD46084800236C
:1020D00042464FF4C25104F0FBFBB5462146484648
:1020E00002F040FDBD46BDE8F08700BFF87E00006D
:1020F000EC790000277F0000567F0000657F00001C
:1021000043B2002B08DB012200F01F0002FA00F0AE
:102110005B09024A42F82300704700BF00E100E07B
:10212000054B420900F01F0053F82220012303FA57
:1021300000F01040704700BF00E100E043B2002B08
:10214000A8BF03F1604301F10101B8BF064B4FEA9C
:102150004111ACBF03F5614300F00F00C9B2B4BF39
:10216000195483F80013704714ED00E030BFFFF7F7
:10217000FDBF00BF0B4A08B50B4B22F07F029A60EF
:10218000BFF34F8FBFF36F8FD3F8882022F4700214
:10219000C3F8882002F07EFD03F09EFB00F0B8FB40
:1021A00002F0BCFD0000000000ED00E0094A0A4911
:1021B000936809689967094958674B6843F08053E9
:1021C0004B60002383F31188BFF36F8F9368986F80
:1021D000704700BF00110020A07C000000ED00E06F
:1021E00012498A684FF030001044EFF3098C80E800
:1021F000F01F202080F31288BFF36F8F0C4F4FF039
:102200000066CA698A603E60506F0023536780F39E
:10221000118804B5104600F017FCBDE8044002F137
:10222000300090E8F01F8CF30988704700110020FF
:1022300004ED00E01EF0040F0CBFEFF30880EFF395
:102240000980816911F8021C0229FFD001B504F050
:1022500088FB01BD42F8203C009B42F81C3C0A4927
:10226000019B42F8183C029B42F8143C21F001010A
:102270004FF0807342F8043C42F8081C0023203AD7
:1022800002654367704700BF1F630000094A0346A9
:10229000906870B113F1160F406E05D0A0F12002C6
:1022A0009A4205D8834203D2814228BF002070475A
:1022B000002070470011002008B5094B98600D46BA
:1022C000144600F0C1FB204685F30988002163B65F
:1022D00081F31188BFF36F8F0022002304F01FF8F1
:1022E0000011002001B572B60B4A906900281EBF8C
:1022F0000021916105F0D4F862B6EFF30580A0F1FA
:1023000010004FEAC0000549014409C99847BDE8DB
:1023100001400349084700000011002044780000F4
:1023200025230000044B9968D869884203D00349EB
:102330004FF080520A6070470011002004ED00E069
:102340002DE9F04186B000AF3F4B7B6106460D465C
:102350003E484FF48251022407F110023C6104F020
:102360000FFB3B4B9B6AD90409D53A4B374807F121
:1023700010024FF48251C7E9044304F001FB344BCF
:102380009B6A1A050AD5344B7B613048022307F15A
:1023900010024FF482513B6104F0F2FA2C4CA36A14
:1023A0009B0522D52D4B29487B6107F110020223A2
:1023B0004FF482513B6104F0E3FAA36BA26A10046C
:1023C000E84612D588B0264920486A46C2E9051376
:1023D000032342F8103F4FF4C25104F0D1FAC5462E
:1023E0001EB1A36A23F40043A362194B9B6A5905EB
:1023F0000AD51C4B7B611548022307F110024FF4EC
:1024000082513B6104F0BCFA114B9A6AD20515D592
:10241000154B7B610D48022307F110024FF48251E6
:102420003B6104F0ADFA0A4A936A002043F47F430B
:10243000183793622870BD46BDE8F0819B6A9B0403
:10244000F1D50A4BE5E700BF937F0000EC7900006F
:1024500000ED00E0A97F0000BA7F0000CD7F000002
:10246000E67F0000FB7F0000168000002E80000049
:1024700010B586B0334B34480593022404AA4FF4B8
:102480008251049404F07CFA304B9B6A9B0108D57E
:102490002F4B2D4804AA4FF48251CDE9044304F098
:1024A0006FFA2A4B9B6ADC0109D52A4B0593264813
:1024B000022304AA4FF48251049304F061FA234BDF
:1024C0009B6A180309D5244B05931F48022304AACD
:1024D0004FF48251049304F053FA1C4B9B6A590346
:1024E00009D51E4B05931848022304AA4FF48251C4
:1024F000049304F045FA154B9B6A9A0309D5184BCF
:1025000005931148022304AA4FF48251049304F066
:1025100037FA0E4B9B6ADB0309D5124B05930A4829
:10252000022304AA4FF48251049304F029FA074AC3
:10253000936A6FEA03436FEA13430020936206B085
:1025400010BD00BF5D800000EC79000000ED00E0F0
:102550007580000088800000A2800000C08000001C
:10256000E5800000FF8000002DE9F04786B000AF55
:10257000504B7B61064688464F481446022507F1BA
:1025800010024FF482513D6104F0FAF94B4B9B6A03
:10259000D80609D54A4B484807F110024FF482513A
:1025A000C7E9045304F0ECF9444B9B6A19070AD5B8
:1025B000444B7B614048022307F110024FF48251E3
:1025C0003B6104F0DDF9DFF8F4A0DAF828309A076F
:1025D00039D46FF01505394B9B6AD8070AD53A4BA9
:1025E0007B613548022307F110024FF482513B61B1
:1025F00004F0C6F9314B9B6A99060AD5334B7B61CF
:102600002D48022307F110024FF482513B6104F080
:10261000B7F92A4B9A6AD2063FD49A6A90073CD4FB
:102620000020264B9A6A920642BF5A6A22F4005250
:102630005A629A6A42F0FF029A62183700232370A6
:10264000BD46BDE8F087224B7B611B48022307F1A2
:1026500010024FF482513B6104F092F9DAF83450E1
:10266000DAF828301B06E946B3D588B0194B124872
:102670006A46C2E90535032342F8103F4FF4C251C0
:1026800004F07EF9CD46B8F1000FA4D0DAF8283076
:1026900023F08003CAF828309DE75B681905BFD591
:1026A00031462846FFF7F2FD0028B9D080F30988AB
:1026B0000220B6E72A810000EC79000000ED00E07E
:1026C00040810000BA7F0000A18100002E80000040
:1026D000738100008B8100002DE9F04F764B8BB0A9
:1026E000D3F8048000AF0D46C8F30804002686F333
:1026F0001188BFF36F8F02F07F43B3F17F4F0ED18C
:1027000002F00C03082B0CD16C4BFB616C480223CC
:1027100007F118024FF48251BB6104F031F93546DC
:1027200003E0120701D4054601260023FB71E31ED6
:10273000092B00F2A180DFE803F0059497919F9F99
:102740009F9F9F9ADFF870815E4B5D48FB614FF061
:10275000020A07F118024FF48251C7F818A004F0DA
:102760000FF9D8F82C404FF0000B14EA0A04E946A0
:1027700087F807B00BD0544BC7E906A3504807F1C0
:1027800018024FF4825104F0FBF800240DE0D8F851
:102790002C30002B25DA4D4B494807F118024FF435
:1027A0008251C7E906A304F0EBF8FB79ABB920220C
:1027B000294607F1080004F000F97B6A002E76D064
:1027C000C3F3080222B96FEA53236FEA43237B6203
:1027D00007F108012046FFF72DFC2C37BD46BDE868
:1027E000F08FD8F82C305B00DFD5394B344807F137
:1027F00018024FF48251C7E906A304F0C1F8AB698F
:1028000033F8022C4DF602739A4209D098F828301A
:10281000BBB1FA1D01212846FFF7A6FE0446C4E716
:1028200088B02B682B4926486A46C2E90513032362
:1028300042F8103F4FF4C25104F0A2F8CD462C6884
:10284000B3E798F8293023B1F91D0120FFF778FD8F
:10285000E4E7B8F82A309BB2002BA6D0FFF708FEB9
:10286000DCE7FA1D0021D6E7F91D0020EEE71A4B40
:10287000FB610223BB6181E7184A194B19491048D3
:1028800018F4F87FE8468AB018BF13466A46C2E9D2
:102890000513022382F82030103C134BD4614FF40F
:1028A000095142F8103F04F06BF8C5466DE723F478
:1028B000FF7323F001038AE700ED00E0EE810000E2
:1028C000EC79000019820000308200005182000083
:1028D0005F8200007E8200009A820000D5810000A5
:1028E000C0810000BE82000004000001024A53695A
:1028F00043F010035361704700ED00E0EFF30880F0
:10290000EFF3098101B57246FFF7E6FE01BD00BF96
:10291000044800232021C2180133302B82F8001311
:10292000F9D1704700E100E0002080F31488BFF384
:102930006F8F04F011FF00200D490860BFF34F8F27
:102940000C4880F3088800F02BF8202080F31188D1
:1029500009484FF40261401880F30988EFF31480AE
:102960000221084380F31488BFF36F8FFFF702FC46
:1029700094ED00E0801E0020002000200749D1F8DF
:1029800090200023C2F307221846934200D17047DB
:10299000C1F89830C1F8A0000133F6E700ED00E07F
:1029A00008B572B6002383F31388FFF7E7FF144BD3
:1029B0004FF0FF32C3F88020C3F88420C3F888208A
:1029C000C3F88C20C3F89020C3F89420C3F8982053
:1029D000C3F89C20C3F88021C3F88421C3F8882160
:1029E000C3F88C21C3F89021C3F89421C3F898212F
:1029F000C3F89C2162B6BFF34F8FBFF36F8F08BD42
:102A000000E100E0084B9B6883420BD1EFF30583A4
:102A100043B1064B5A6842F080525A605A6A22F417
:102A200000425A6202F006BF0011002000ED00E0F3
:102A3000024B034A0348012100F090B80000042033
:102A400000000020447B0000426E054B203A1A60D3
:102A5000044A2021C3E901121846012100F088B878
:102A6000B40F002000000B15F8B5DFF8B4C000AFBC
:102A700000258D421ADA4468002C4DD0FBB104F1D8
:102A8000FF3E14EA0E0F14D0264B6C4688B06A46FF
:102A9000C2E90535032342F8103F234800234FF4D1
:102AA000C25103F015FF6FF01502A5461046BD4652
:102AB000F8BD1F2CE8D906681EEA060FE4D1202CC9
:102AC0000668D0F808E0D2B214D9B4F1004F13D898
:102AD000013CB4FA84F4C4F11F046400072A4EEAEE
:102AE00004040BD911496C4688B06B46C3E9051242
:102AF0001A46CFE70824F1E73E24EFE726F01F0649
:102B0000164346F0100644F00104CCF89820CCF8A7
:102B10009C600132CCF8A04001350C30A9E700BF21
:102B200000ED00E0D5820000E4790000F8820000AA
:102B3000044B0522C3F89420BFF34F8FBFF36F8F70
:102B4000704700BF00ED00E0BFF35F8F024B002233
:102B5000C3F89420704700BF00ED00E010B5034CAF
:102B600001232278FFF780FF207010BD3B13002067
:102B700008B5094A00231278FFF776FF10F1160F07
:102B800003D0064B0022072800DD08BDC3F89800DB
:102B9000C3F8A0200130F6E73B13002000ED00E071
:102BA00014490868082810B521D8FFF7CDFF124C4A
:102BB00049680022904201F10C0105D10F4B1870B9
:102BC000FFF7B6FF002010BDC4F8982051F80C3C68
:102BD00023F01F03134343F01003C4F89C3051F853
:102BE000043C43F00103C4F8A0300132E2E74FF0A7
:102BF000FF30E8E7507B000000ED00E03B130020D1
:102C0000014B1860704700BF3000002010B54FF036
:102C10002003EFF3118083F31288BFF36F8F114A03
:102C20000123C2F840354FF080424FF08051C2F886
:102C30007835D1F83041082C08D1D1F83411052964
:102C400004D8094C615C09B1C2F838364FF08043B2
:102C50000122C3F8802580F31188BFF36F8F002015
:102C600010BD00BF00E00140318300004FF0804301
:102C7000C0B2C3F81C05BFF34F8F0549054BCA68A6
:102C800002F4E0621343CB60BFF34F8F00BFFDE758
:102C900000ED00E00400FA0520B1034B800143F091
:102CA00001031847704700BF507A0000084B70B509
:102CB000C31A0D4607499B10044659430648402253
:102CC00003F0C0FE2B4601462046BDE87040184781
:102CD000D00F0020B76DDBB6CC77000073B50C4C7D
:102CE0000C4A4023041B00930D460B460A49A410CE
:102CF00061430646094803F0D2FE011E05DA30465C
:102D00002B4602B0BDE87040184702B070BD00BF4E
:102D1000D00F00200D6B0000B76DDBB6CC77000044
:102D2000002270B5012104461046FFF707FA0F484C
:102D300001F0C8FA0E4B984215D104F0AAFA2669A0
:102D40000C49304603F08FFA00280BDB246909494F
:102D50000125356404F11C0003F085FA002801DB2D
:102D6000E564002070BD6FF00400FBE7AD2D0000AE
:102D70000000AD0BA07B000001460C2309484B432B
:102D800070B5C418D4E90E5600224033A26318442B
:102D900003F045FE2DB132462B460348BDE8704096
:102DA000184770BDD00F0020CC77000010B101286B
:102DB00004D07047034B1B6C5B0701D1FFF7DCBFEE
:102DC000704700BFD00F002008B54FF02003EFF38D
:102DD000118183F31288BFF36F8F124A136843F097
:102DE000020013F0010310600CD04FF08042D2F8C3
:102DF0000C34D2F80C2413F0010303D00A4803F07A
:102E00000EFE012381F31188BFF36F8F23B1BDE85C
:102E100008400020FFF7B0BFBDE80840012004F0E3
:102E200045BA00BF20100020101000201FB500225E
:102E30000123CDE90223094ACDF800D06B46CDF835
:102E400004D003F05CFE002805DB4FF48042002331
:102E5000684602F0CFF905B05DF804FB2B6B00006B
:102E6000094BBFF35B8F53E8002F22F0020143E8C8
:102E700000100028F7D1BFF35B8FD30702D40120E5
:102E800004F051BA704700BF201000202DE9F04136
:102E90003949BFF35B8F0746012251E8003F41E803
:102EA00000200028F9D1BFF35B8F33B93349344890
:102EB0004B60CB608A6003F0E9F97B1E012B2FD8B1
:102EC000012F07D14FF08043D3F81C3403F00303E4
:102ED000012B25D004F0D9FA044618B9294B1B78E8
:102EE000002B41D14FF02003EFF3118683F31288BA
:102EF000BFF36F8F0124DFF890804FF08045D5F845
:102F00001834D5F81824D2030CD503F00303012B91
:102F100001D0012F06D10CB386F31188BFF36F8F58
:102F2000BDE8F081ACB13046FFF77AF8D5F8183536
:102F3000002BE4D1D5F80421002AE0D0C5F80431F3
:102F4000D5F804310123C5F81835C8F88031AB60D5
:102F5000D5E70021212002F04DFCE7E74FF0804348
:102F60000222C3F80423DBE74FF080430222C3F8B8
:102F700008230646BFE700BF24100020C00F002032
:102F8000EC0F00204C17002000E100E008B5084BD2
:102F90000848186004F027FA38B10748FFF730FEF8
:102FA0000548FDF76FFC002008BD6FF01200FBE73D
:102FB000281000202C780000BD2F00000A2838B50A
:102FC000074D044604D1286883680D21DB699847C2
:102FD00028688368E1B2DB699847204638BD00BFA6
:102FE0002810002030B54068047B01F01F05B2F5C1
:102FF000001F45EA441585B04FF0000404D128466F
:1030000001F0E2FB002032E0B2F5800FCDE902448E
:103010002FD1B3F1007F0CBF042305238DF80830B6
:10302000836823FA01F1C9072FD4B2F1A07F2CD114
:103030006A09012A05F01F031C4A03F5E07318BF53
:103040004FF0A04252F82330DB071ED40DF10704E5
:103050002146284601F01CFB154B984214D120460E
:1030600001F064FB134B98420ED06FF00B0005B0DB
:1030700030BDB3F1C06F05D0B3F1007F0CBF0223A8
:103080000123CBE70323C9E703940023194602AACF
:10309000284601F0D7F9074B984204D10121284670
:1030A00001F04AFBAEE76FF00400E0E700030050D8
:1030B0000400AD0B0000AD0B10B501F027FB04467A
:1030C00068B901F0FBFA084B98420AD1074821463B
:1030D00001F0D8FA224605210620FFF72FF800203C
:1030E00010BD6FF00400FBE70000AD0BF1300000F5
:1030F000420970B5034602D0012A15D070BD0B4EAF
:10310000326951680029F9D003F01F0301250C68CA
:103110009D408A682A4002D04B6830469847002C70
:10312000ECD021462468F4E7014EE9E7E47700009B
:10313000FC7700002DE9F04347683B7B01F01F0559
:1031400085B00E4645EA43151446CAB902A9284679
:1031500001F09EFA0446284601F05EFB4A4B984275
:1031600004D06FF0040005B0BDE8F083844205D1BF
:103170009DF8080001F0D4FAA042F2D10020F2E755
:103180004FF000090DF103013046CDE9029901F03D
:103190007FFA4B46804602AA4946284601F052F97A
:1031A000394B984202D06FF01500DCE7804503D11F
:1031B0009DF8030001F0B4FAA30351D540F2066371
:1031C000234040F2062293423BD00CD8062B15D068
:1031D00004D89BB1022BE6D104230FE0B3F5007FA6
:1031E000E1D101230AE040F2024293422BD0B3F531
:1031F000C06F2AD0B3F5806FD5D102238DF804308B
:1032000084F48033C3F30043E0068DF8053054BFE7
:10321000C4F34013032321038DF8063017D57B68D0
:10322000012101FA06F6C3F80865002201A9284623
:1032300001F0B6F9144B984214BF6FF0150000204E
:1032400091E70723DAE70523D8E70323D6E76203EC
:1032500041BF7B68012101FA06F6C3F80C65E4E77B
:10326000E3064FF0000354BFC4F3401403241A468E
:1032700001A928468DF8044001F0E4F8024B984279
:103280003FF47CAF8FE700BF0000AD0B2DE9F341A9
:103290001C46436807690E46054619684FF020032F
:1032A000EFF3118883F31288BFF36F8FF868C36858
:1032B00043B188F31188BFF36F8F6FF00F0002B036
:1032C000BDE8F0814FF4800CC2608660C1F804C391
:1032D00006F06041B1F1005F28D1C0E904623946CF
:1032E000284603F0DEFD88F31188BFF36F8FFB7A69
:1032F000012B19D1631C17D024EAE4750D48FE6830
:103300000D4A00244FF4004721460023C5FB070166
:10331000FCF7F6FE283602460B4600200021CDE9D8
:103320000001304602F070FC0020C8E7036203F0A1
:103330006DFDD4E73F420F0040420F00F0B54B79DE
:10334000012B26D0032B21D110268B79032B1DD1E5
:10335000CC790CB1012C19D10A7912B1022A15D1FC
:103360000E220B684568B3F5164F2D6865D02DD831
:10337000B3F5165F64D016D8B3F5966F62D00AD84D
:10338000B3F5967F61D0B3F5167F61D06FF08500FD
:1033900052E00026D9E7B3F5166F5CD0B3F5965F1F
:1033A000F4D1374B3CE0B3F5E14F57D007D8B3F534
:1033B000615F55D0B3F5964FE8D1324B30E047F618
:1033C0001227BB42E2D14FF4000329E0B3F5613F7D
:1033D00048D013D8B3F5963F47D009D84DF6C0274B
:1033E000BB4244D0B3F5614FD0D14FF46B0317E02B
:1033F000B3F5E13FCAD14FF0EB7311E0B3F5612FA4
:1034000038D008D8204FBB4237D0B3F5E12FBDD11B
:103410004FF0E86304E01D4FBB42B7D14FF080533B
:103420000069C5F82435031D03C934432243C5F898
:103430006C2583E803000020F0BD4FF41D03EFE787
:10344000134BEDE74FF49E23EAE74FF4A033E7E791
:103450004FF41C33E4E74FF41D23E1E70D4BDFE7A6
:103460000D4BDDE74FF06C73DAE70C4BD8E74FF408
:103470006503D5E74FF07063D2E74FF08063CFE785
:1034800000B0130000A04E0090D0030040420F0097
:103490000050270000C0750000F03A0000903A018B
:1034A0002DE9F043D0F804900669D9F80040D9F826
:1034B0000C8087B00021C4F80015074630606A46CA
:1034C000404603F013FE051E26DB009BD8F80020C3
:1034D0001979186803F027FE051E1DDB311D3846DB
:1034E000FFF72CFF0546B8B9D9F8043099072AD55B
:1034F00006F1160001F08AFA494B984210D0494B68
:1035000005930223049348482B4604AA4FF48251A2
:103510006FF0040503F0DCF9284607B0BDE8F0833E
:10352000B07DC30003F1804303F5F83304F10C02CE
:1035300004F59071C3F81015C3F814253B4A012314
:103540008340C2F80435F368002B55D07B68D7F868
:1035500010801B68D8F80C0035490422C3F80423F6
:103560000122C0F8C820C3F804130821C3F80015CD
:10357000D3F84C11A1B15A60D3F844211AB9D3F849
:103580002421002AF8D00022C3F84C21D3F84C1192
:10359000C3F81021D3F81011C3F84421D3F84431F3
:1035A00024490022883004F0ACF8D8F80C30D8F860
:1035B0000C00C3F8BC8020490022283004F0A1F898
:1035C000D8F80C30C3F85C80D9F804309A075CBF97
:1035D0004FF48072C4F80423DB0644BF4FF4800329
:1035E000C4F8043314360023C4F84465C4F84835DD
:1035F0000123A360E3608FE70823C4F8003599F83E
:103600000830002BE0D1C4F81031D4F8103106F1A5
:103610001503C4F834350123C4F838352360D3E7E3
:103620000000AD0B65830000047A000000F001404B
:1036300010020A0021700000DB700000F8B5066976
:1036400004460F4603F021FF10B9284B1B785BBBE3
:103650004FF02003EFF3118183F31288BFF36F8FD4
:1036600060680D4603F00DFCC8B1F3685BB1DA6821
:103670004AB1D3F8C420002A05DA62681268D2F889
:103680004C25C3F8C4203146012201F8147F20469E
:1036900003F0AEFA85F31188BFF36F8FF8BD81F3A5
:1036A0001188BFF36F8FD3E76425606803F0E9FBEF
:1036B00048B9012003F0EBFD013DF6D100212120A6
:1036C00002F098F8F0E74FF02003EFF3118583F351
:1036D0001288BFF36F8F606803F0D3FB0028D2D14C
:1036E00085F31188BFF36F8FE8E700BF4C17002008
:1036F00043682DE9F0411D68D5F8081188B00446EB
:1037000071B103690022C5F80821D5F80821DA68EB
:10371000D2F8C0300133C2F8C03008B0BDE8F08143
:10372000D5F8243113B3C5F82411D5F82431D5F8D0
:103730008064C5F88064142203A803F049F90623C5
:103740008DF80C30F30700F10081B70700F1FF801E
:10375000700700F1FE8006F00806204603A98DF8E8
:10376000106003F06BFA204603F0FBFAD5F8103135
:103770007BB3D5F80433D9062BD54FF00008276961
:10378000C5F81081D5F810316368F8681E68012308
:1037900080F8D530883003F0C0FFFA68D6F83C15C1
:1037A00092F8D130906E82F8D1801B1A0B44906F42
:1037B00023EAE37108444345906702DD204603F0A5
:1037C00044FAF96891F8D230002B40F0C48081F8B7
:1037D000D530D5F84C317BB3D5F8106166BB1422D7
:1037E0002769C5F84C61314603A8D5F84C3103F080
:1037F000EFF8032303A920468DF80C3003F01EFADE
:10380000FF68FB6F5A1C17D0C7F88430D7F8803098
:1038100089488A4A23EAE37C4FF4004E314600236C
:10382000CCFB0E01FCF76CFC02460B46CDE9000117
:1038300007F1880002F0E8F9D5F8443133B3D5F840
:1038400010611EBB2769C5F84461F968D5F8443199
:10385000D4F804806031204603F010FAF96820465D
:103860006C3103F00BFAFB6893F8D220002A00F0C9
:103870009F8083F8D260D8F80430D80603D502219F
:10388000204603F0D7FA204603F010FAD5F820318D
:10389000DBB1D5F80433D90517D563681B684FF041
:1038A0002001EFF3118281F31288BFF36F8FD3F8F9
:1038B000201131B10021C3F82011D3F820110121CA
:1038C000D96082F31188BFF36F8FD5F85831002B80
:1038D0003FF423AFD5F804335A027FF51EAF636877
:1038E0002569D3E90073DB0667D4EB689B68002B7E
:1038F0003FF413AF4FF02003EFF3118283F31288EC
:10390000BFF36F8FEB68D3F8C4100029ACBFD3F8B6
:10391000C460D7F84C6582F31188BFF36F8FE868F5
:1039200090F8D430002B55D04FF02003EFF31186E0
:1039300083F31288BFF36F8F2946204603F0B1FA54
:1039400086F31188BFF36F8FE7E6012605E70226AD
:1039500003E7042601E76031204603F08FF94FF0BA
:103960002003EFF3118183F31288BFF36F8FFB689D
:10397000DA6ED2B11A661A6F5A660022C3E91B22A8
:103980009A66D6F84C310BB901233360D6F8003271
:1039900023F02003C6F8003281F31188BFF36F8F44
:1039A000FB68002283F8D52013E701237360F3E757
:1039B0006068114603F0F6F95DE74FF48003C7F83D
:1039C00008330121204603F035FAEB68DB68002B51
:1039D0008BD1A2E6826803699A420BD04269036ADE
:1039E000B242334425D1036203F010FA00289BD180
:1039F000EB681E6AE868283003F08FFE142200216D
:103A000003A802F0E5FFEB689A68CDE90426DA68BE
:103A100096421CBF01228DF80C204FF48002C7F89B
:103A2000082300229A60DA6003A9204603F006F911
:103A300073E61E46DEE700BF3F420F0040420F0024
:103A400010B501238340114ABFF35B8FDC4352E87A
:103A5000001F01EA040C42E800CEBEF1000FF6D1CF
:103A6000BFF35B8F4FF4803202FA00F002F1804224
:103A700002F58052C2F80803BFF35F8FBFF36F8F68
:103A80000B4214BF0120002010BD00BF48100020D1
:103A90001949F8B5044622F07F450868C1E90023BA
:103AA000A5F50013101AB3F5400F22D2134B1B6873
:103AB0001A0A1B065E19124B42F10007C3E90067A0
:103AC000012601F0E7FFA30003F1804303F58833EB
:103AD000D3F84025AA420BD11EB94FF40002C3F817
:103AE0004025084B4FF4803000FA04F4C3F84443F7
:103AF000F8BD0026E5E700BFC80800204C100020F4
:103B0000B00800200010014019B3BFF35B8F012300
:103B1000104A834052E8001F194342E8001CBCF1E0
:103B2000000FF7D1BFF35B8F0B4A4FF48033834014
:103B3000C2F80433094BBFF35B8F1B68BFF35B8F85
:103B400023FA00F0C30742BF054B4FF40032C3F81D
:103B50000021704748100020001001404410002050
:103B600000E100E00D4B1868010A0006BFF35F8F0B
:103B70000B4BD3F80435181841F10001B3F5801F41
:103B80000AD2084BD3E90023904271EB030303D21E
:103B900010F1807041F10001704700BF4C1000200F
:103BA00000100140B00800202DE9F04F85B0164606
:103BB00098460546FFF744FF0090FFF7D3FFB04259
:103BC00071EB080378D2464B301A68EB010198423A
:103BD00071F1000380F08180424B03EB0513D3E9C0
:103BE00002ABD84508BF564551D04FEA850909F1C7
:103BF000804905F1500709F58839BF004FF480313D
:103C000001FA05F3BFB226F07F4207F18047019326
:103C1000D9F84005344B07F588371446D3F8041516
:103C2000401A20F07F4021F07F4C0128C9F840C5A0
:103C300007D1CDE90221132003F05FFDDDE9022168
:103C4000294B01F1020CA4EB0C0020F07F40B0F5F1
:103C5000000F88BF64460020386038680198C3F8B8
:103C6000440324F07F40C9F84005D3F8040581429D
:103C700006D0201A023820F07F40B0F5000F19D886
:103C8000A41A24F07F4414EB060A48F1000B1549EE
:103C90000E982B0101EB0512C2E902ABC8500F9B35
:103CA0005360002428460099FFF72EFF204605B0F8
:103CB000BDE8F08F2046B1E701230C4ABFF35B8FCC
:103CC000AB4052E8001F194342E800100028F8D129
:103CD000BFF35B8FB246C346D9E76FF01504E1E747
:103CE00001000001B808002000100140441000202D
:103CF00073B5194B194D00244FF0FF304FF0FF31D1
:103D0000C5F80845C3E902014FF48033C5F8043310
:103D1000134B02264FF400320121C5F80463112031
:103D2000C3F880212246FEF709FA1120FEF7E8F9D0
:103D30000C4A0123AB602B6013600B4B0B4A0093C2
:103D4000019400232046FFF72FFF3046FFF79EF82F
:103D5000204602B070BD00BFB8080020001001402E
:103D600000E100E048100020913A0000FFFF7F00D2
:103D70002DE9F743354CD4F804339A070BD5D4F822
:103D8000043143B1324A0023C4F80431D4F8043179
:103D90001368013313604FF02003EFF3118283F3B4
:103DA0001288BFF36F8FD4F80433DB0312D5BFF34F
:103DB0005B8F284B53E8001F21F0010043E8000609
:103DC000002EF7D1BFF35B8F002936D1D4F84031F4
:103DD000002B32D1002382F31188BFF36F8F4BB3D6
:103DE000FFF7C0FE4FF02003EFF3118C83F312882E
:103DF000BFF36F8F184BD3E90267B04271EB070234
:103E00004FF0000220D34FF0FF384FF0FF39D3E9D5
:103E10000015C3E902891A604FF48033C4F84833AF
:103E20008CF31188BFF36F8F21B1009532463B466A
:103E30000020884703B0BDE8F0830023C4F8403178
:103E4000D4F840310123C6E71146E9E700100140EC
:103E50004C10002044100020B8080020431C13B56B
:103E600021D0012821DDB0F5000F20DA441EFFF734
:103E700079FE104BD3E90013401AB0F5000F28BFAC
:103E80000024013002190C48824228BF0246521811
:103E90004FF0000009490190009143F10003FFF742
:103EA00083FE02B010BD0448E0E70024DFE7024CC7
:103EB000DDE700BFC8080020FFFF7F00913A000047
:103EC00008B5FFF74FFE024B1B68C01A08BD00BFC4
:103ED000C808002000F01F0140090128044B4FF0E2
:103EE000010218BF4FF0A0438A40C3F80C25704769
:103EF0000003005000F48053002B30B507BF144678
:103F00000D4601240025C0F3811200F01F0110F0BE
:103F1000200F00F4706040EA8202064B42EA05027C
:103F200008BF4FF0A04301F5E07142EA440243F8B4
:103F3000212030BD0003005000F01F01400901287E
:103F4000044B4FF0010218BF4FF0A0438A40C3F862
:103F500008257047000300507FB5FDF72DFB074B88
:103F60000593022304930648002304AA4FF48251C8
:103F700002F0AEFC0020FEF779FE00BFA283000035
:103F8000CC7900004FF08053D3F83021082A06D1B5
:103F9000D3F83431052B02D8024AD05C7047002098
:103FA000704700BFC5830000024AD2F80034002BDE
:103FB000FBD0704700E0014010B503F05EF940B15E
:103FC0004FF080430022C3F80C21C3F81021C3F83E
:103FD000382503F052F9002846D04FF08052604B4C
:103FE000D2F80414C3F82015D2F80814C3F8241525
:103FF000D2F80C14C3F82815D2F81014C3F82C15F5
:10400000D2F81414C3F83015D2F81814C3F83415C4
:10401000D2F81C14C3F84015D2F82014C3F8441584
:10402000D2F82414C3F84815D2F82814C3F84C1554
:10403000D2F82C14C3F85015D2F83014C3F8541524
:10404000D2F83414C3F86015D2F83814C3F86415E4
:10405000D2F83C14C3F86815D2F84014C3F86C15B4
:10406000D2F84424C3F87025FFF78CFF18B13D4BFC
:104070003D4AC3F88C26FFF785FF18B13B4BFB2266
:10408000C3F81825FFF77EFF70B14FF080414FF065
:104090008053D1F8E42ED3F8583222F00F0203F007
:1040A0000F031343C1F8E43EFFF76CFF20B1304B20
:1040B0004FF40072C3F8402603F0DFF848B14FF028
:1040C0008043D3F80024D20744BF6FF00102C3F845
:1040D00000244FF08053D3F83021082A0ED1D3F8B2
:1040E0003431052B02D8234AD35C3BB14FF0102367
:1040F000D3F808224FF08043C3F858254FF010231F
:10410000D3F80022002A03DBD3F80432002B22DA92
:10411000194901234FF01020C1F804351224FFF78C
:1041200043FFC0F80042FFF73FFFC0F80442FFF72B
:104130003BFF0023C1F80435FFF736FFBFF34F8F75
:104140000E490F4BCA6802F4E0621343CB60BFF321
:104150004F8F00BFFDE70B4B0B4A1A6010BD00BF2D
:1041600000C00040005000404881030000F00040C3
:1041700000900240BF83000000E0014000ED00E03D
:104180000400FA05640000200090D00370B50125FA
:104190000268B2FA82F3C3F11F035E1CDCB214D0D2
:1041A000BFF35B8F05FA03F322EA030350E8006FC5
:1041B000964204D140E8003CBCF1000FF6D1BFF3B9
:1041C0005B8FE5D102480C7070BD0248FCE700BF70
:1041D0000000AD0B0200AD0B0368CB40DB0710B550
:1041E00015D4012303FA01F10368BFF35B8F41EAA1
:1041F000030250E8004F9C4204D140E8002CBCF17F
:10420000000FF6D1BFF35B8FEED1024810BD02481C
:10421000FCE700BF0000AD0B0400AD0BF7B5044692
:1042200018B1012829D003B0F0BD4FF0804302221D
:10423000C3F80823C3F80401D3F804210122DA608B
:1042400001239C428DF8073014BF00250DF10705AE
:1042500042F210774FF08046D4B1012CE3D125B162
:10426000D6F80C3403F001032B70D6F80C34DB03C2
:1042700018D4134B00225A71D5E74FF08043002227
:10428000C3F80803C3F80021D3F800215860D7E72A
:1042900025B1D6F8183403F003032B60D6F8183490
:1042A000DA03C0D52DB9012002F0F1FF013FD3D1CF
:1042B00003E09DF80730012BF5D0012CD9D0B2E7EF
:1042C00050100020044B1A7922B9012218609A80FC
:1042D0000248704702487047501000200000AD0BA4
:1042E0000C00AD0B4FF0804310B5D3F800216AB13C
:1042F0000022C3F80021D3F800210122C3F80823CB
:10430000114B587910B95A711B6898474FF0804388
:10431000D3F8042172B10022C3F80421D3F8042198
:10432000D3F81824D3F81814920704D10122C3F843
:1043300018259A6010BD0222C3F80823024BBDE87D
:1043400010401B680120184750100020036803F03C
:104350001F025B09012B0260024818BF4FF0A0400A
:10436000704700BF00030050034B083033F81000C3
:10437000C0F34010704700BF6800002070B500F126
:1043800008030C4C34F81330DA0505460E4607D501
:10439000C3F3432304EBC30254F833305268984705
:1043A000A3682BB1E26831462846BDE87040184743
:1043B00070BD00BF68000020124A083010B432F807
:1043C0001030D9051BD5C3F3432123F4F85322F849
:1043D000103002F11004002034F8023B13F4807F07
:1043E00003D0C3F34323994209D001303028F3D1DD
:1043F000002342F83130044810BCFFF7EDBE10BC7A
:10440000704700BF68000020DC00002038B502467D
:10441000FFF7AAFF094C02F1080540B134F8153046
:1044200007495B0B03F5A273002041F823001046F7
:10443000FFF7C2FF002324F8153038BD68000020C4
:10444000006000402DE9FF41044617461D4621B398
:104450004E4E00F1080836F818309B0706D5FFF7D6
:1044600083FF18B14A4804B0BDE8F0810023CDE9CC
:1044700000338DF80E308DF80F300DF10F020B4622
:1044800020460DF10E0102F050FF36F8183023F0EF
:10449000020343F0010326F8183097B13B4B3E78F6
:1044A0007A6804F1080033F810108F070CD5002A41
:1044B000D8D133F8102022F01C0242EA860223F8F9
:1044C0001020CDBB3348CEE721F02001C904C90C30
:1044D00023F81010002AECD0032EC3D817782EB979
:1044E0002D4A07F5A27142F82160E2E7BA0002F115
:1044F000804202F5C04241EA4731D2F810C52CF0A3
:10450000030CC2F810C5D2F810C52CF44F3C2CF4A3
:10451000407CC2F810C5D2F810E54FEA042C0CF428
:104520007C5C4EEA064E4CEA0E0C41F0200123F86A
:104530001010C2F810C5BCE7D5E900672046FFF7A8
:104540003BFF002EBED0114D2B689E4204D16B68FC
:104550009F4201D100220AE010480DF10F01FFF740
:1045600015FE0C4B98427FF47EAF9DF80F2045F866
:10457000326005EBC20308345F6035F8143043EA5B
:10458000422343F4807325F814309BE76800002031
:104590000400AD0B0000AD0B00600040DC0000200B
:1045A000F0B5044685B0154619B3334E00F108073F
:1045B00036F81720930703D4FFF7D6FE002858D10A
:1045C00012F01C0F02D04B78012B52D001238DF832
:1045D0000F300023CDE900134A1C8B1C20460DF13F
:1045E0000F0102F0A2FE36F8173043F0030326F85D
:1045F000173015B9214805B0F0BD1F4E04F108076A
:1046000036F81700830734D595F800C06146890055
:1046100020F0200001F18041C00401F5C041C00C30
:1046200026F817000023C1F810356A78002AE1D077
:10463000D1F81035AD7823F4991323F4F853C1F869
:104640001035D1F810E5230203F47C53120402F470
:10465000403243EA0E0313432A0502F4801240EA73
:104660004C30134340F0200026F81700C1F81035F5
:10467000C0E70348BFE700BF680000200000AD0BA3
:104680000400AD0B014BC3E9020170476800002034
:1046900008B50246FFF768FE38B1054B05480832F9
:1046A00033F812305B0B0B7008BD0348FCE700BF0A
:1046B000680000200000AD0B0400AD0B38B50F4CB6
:1046C00094F87850BDB96022294604F1100002F038
:1046D0007FF90620FDF714FD094B0A48C3F87C5109
:1046E000D3F87C214FF00042C3F80423012384F85F
:1046F0007830636738BD0448FCE700BF68000020DD
:10470000006000400000AD0B0500AD0B034B93F8BB
:104710007800003818BF0120704700BF68000020F3
:1047200001460148FFF758BDD80000200146014866
:10473000FFF72CBDD800002037B50446FFF714FE64
:1047400004F108021E4B33F81230E8B113F00205F1
:104750001AD15B0B9A0002F1804000F5C24002F1D1
:10476000804202F5C04205600068D2F8100540F0B2
:104770000100C2F8100529B1012202FA03F3114A1F
:10478000C2F8043303B030BDC3F38203042B12D04C
:10479000052B12D001A80194FFF7D8FD019BD0F89A
:1047A0001015D94001F001010231204603B0BDE8E7
:1047B000304002F001BE0321F7E70221F5E700BF18
:1047C000680000200060004008B50246FFF7CCFDFD
:1047D000C0B102F108010E4B33F81130990711D422
:1047E0005B0B01229A409B000A4903F1804303F5C9
:1047F000C043C1F80823D3F8102522F00302C3F800
:10480000102508BDBDE808400021104602F0D4BDC7
:1048100068000020006000400E4B00F1080213B554
:1048200033F81230DB07044611D5FFF7CDFF2046E1
:10483000FFF7ECFD01A80194FFF788FD019B03F54C
:10484000E073022240F82320034802B010BD034861
:10485000FBE700BF680000200000AD0B0400AD0BBB
:104860002DE9F04F644B65486549002687B0012269
:1048700034461D6835B1D0F8045315421EBF1C6084
:104880001D68164304338B424FEA4202F1D1DFF830
:104890006C81D8F87C31002B00F091804FF0A04360
:1048A000D3F820250492C3F82025D3F820280592B8
:1048B000C3F8202800270DF110097B0100934FF069
:1048C000010A49E0009B4F4A94FAA4F4B4FA84F434
:1048D0001C4404F10803E00832F81330039404F098
:1048E00007020AFA02FC19F8002022EA0C0209F871
:1048F000002003A8C3F382059908FFF727FD039A58
:1049000002F5E0724B0750F82220AB46C2F3014299
:1049100029D520465946D5B2FFF730FD03A80394A8
:10492000FFF714FD039B03F5E07350F82330C3F346
:1049300001439D4207D10021204602F03DFD29465A
:10494000204602F039FD03A80394FFF7FFFC039B08
:104950000AFA03F3C0F8203559F82740002CB1D1EA
:10496000CFB90127A9E7022A0CBF03210221204663
:10497000019202F021FD032D04D0019A022A06D1F2
:10498000012DE0D159462046FFF7F8FCDBE7032A6A
:10499000D9D1022DF5E7C8F87C41D8F87C311A4905
:1049A0004FF0A043D3F820250492C3F82025D1F876
:1049B00020350593C1F8203513437FF47BAF0124E4
:1049C00016B907B0BDE8F08F96FAA6F3B3FA83F3F1
:1049D00004FA03F29B0003F1804303F5C04326EA87
:1049E0000206D3F81005D3F81015C0F30520C1F363
:1049F0000141FFF7C3FCE3E70061004000600040B5
:104A0000206100406800002000030050014601487A
:104A1000FFF7BCBBE400002010B5114C114A12494D
:104A2000032323616361114BA261E3614FF480634F
:104A300023620023A3626362E36222660C4A626619
:104A4000E01D1022A2662367E366636701F09BFF07
:104A50000849204601F097FF2023A37110BD00BF35
:104A600058100020CB830000D48300004C1300209A
:104A70003C130020D88300002DE9F84F234F4FF05E
:104A8000180B14460BFB00720646936A556AAB423C
:104A9000884634D8D2F820A0AAEB050909F1FF32E4
:104AA000944211D84FF0180906FB09933B44224663
:104AB00058684146284401F080FF09FB06762C44E3
:104AC00074620120BDE8F88F13449C421BD800FBA0
:104AD0000BBBBB444A46DBF804002C44284401F0DD
:104AE0006CFFB4EB0A0406D0DBF80400224608EBA6
:104AF000090101F062FF182000FB0676E0E7013BA8
:104B00005B1BA342CED20020DCE700BF5810002080
:104B1000034B182202FB00339A6A586A801A7047C6
:104B2000581000200E4B70B553F82040013053F858
:104B30002060A64200D870BDD4E9003528469847C9
:104B400065B1EB6830B10028B8BF4042FF28A8BF6C
:104B5000FF2018705A7842F001025A700834E8E7D2
:104B60008C7C00002DE9F04786B0054600AF0E466C
:104B70004FF02003EFF3118883F31288BFF36F8F98
:104B800000F052FE042D96BF2C4B2D4B53F82530D0
:104B90002C49E9468AB06A464FF0000AD3610323E4
:104BA00082F82430284BC2F820A0C2E9051504463B
:104BB00042F8103F254853464FF4295101F088FE32
:104BC000CD467EB1F369C3F308035BB1204B7B6133
:104BD00002233B611D48534607F110024FF48251F6
:104BE00001F076FE2CB1204602F058FC08B10378A3
:104BF00003B91848184BE9468AB06A46C2E9053439
:104C0000032382F82030154BD06142F8103F002377
:104C10000E484FF4095101F05BFE3146CD4628465F
:104C2000FFF79AF988F31188BFF36F8F2046FDF7DD
:104C3000E9FE1837BD46BDE8F08700BFA47C000040
:104C4000DF830000F583000005000001EC7900001F
:104C50001D840000ED8300003E840000040000017C
:104C600008B50A4B012202201A70FFF75BFF01F022
:104C70001DF80320FFF756FF00F06AF9FBF726FC4A
:104C8000034A137B23F00103137308BD4C17002064
:104C90005009002008B50348034A0021121A02F007
:104CA000ACFB08BD480200205017002070B500235F
:104CB00086B00122CDE90423134E144D01930F2237
:104CC000CDE902321249182303FB005506EBC0164A
:104CD00004464FF4B07000FB04110E4B00954FF4E6
:104CE000A072304600F0D6F8737B0B482C7523F089
:104CF000040373734FF4026303FB04041C44EE606B
:104D00006C6006B070BD00BFD0080020001100200C
:104D1000A01E0020095000000020002080B52E4B6E
:104D2000A6B083F308882D4D2D4E6B692D4F43F4AB
:104D3000007300246B61E02385F82230EC772C7639
:104D40006C76AC7685F820406B6A43F4E0236B62A6
:104D500085F82340FDF7CAFDFDF74EF94FF0FF330C
:104D6000AB62EB62FDF71CFFFDF762FEFCF72EFB6A
:104D700040F20113ADF8243006ABB360CDE91F4417
:104D8000229402F02FFB2046FFF7CCFE0120164DA7
:104D9000FFF7C8FE00F09AFC144BF5610593012360
:104DA00013490094CDE903434FF480623B46CDE9BB
:104DB0000144284600F06EF86A7B064622F00402A1
:104DC00028466A7302F0CCFB2046FFF76FFF3A4695
:104DD00031462846FDF770FA2028002000ED00E05B
:104DE00000110020614C000050090020A084000048
:104DF000801A002070B50E4B0E4CA34201D3002048
:104E000070BDD3E9030141EA000212F003020BD1A5
:104E10009D685A61AA4201D11C33EEE75E690E60BB
:104E2000013259610144F5E76FF01500E8E700BF72
:104E3000D4010020D401002037B50C464FF02005E6
:104E4000EFF3118185F31288BFF36F8F45695DB170
:104E500025602B684361836901338361002081F3FE
:104E60001188BFF36F8F11E052EA030C03D1256064
:104E70006FF00B00F3E7CDE900230246083000F0A5
:104E80007BFB18B9024B9B685B69236003B030BDA4
:104E9000001100202DE9FF410E9E06730426467383
:104EA0000D9E867300F158050F46D61DC0E91655B4
:104EB0000C9A002526F007062037C0E90655C0E900
:104EC00019768560C573C56606F1200802920B9AB3
:104ED000019288440A9A009242460446FDF7BAF9C4
:104EE000044B65659B6803B11B6F2367404604B0A4
:104EF000BDE8F08100110020F0B587B000270597CC
:104F0000109F04970F9F03970E9F0297DDE912658C
:104F10000D9F01970C9F00970446FFF7BBFFB5F16B
:104F2000FF3F08BFB6F1FF3F05D055EA060305D1A4
:104F3000204600F0C5FA204607B0F0BD03493246CE
:104F40002B4604F1180000F02BFDF4E781750000FA
:104F50002DE9F043294C2A4D87B02646AE4204F194
:104F600030040FD300F0C6F9244CDFF898904FF4CA
:104F7000004640F2E737AC4220D307B0BDE8F0432B
:104F800000F088BB54F8043C059354F8103C04939B
:104F900054F8143C039354F8183C029354F81C3C06
:104FA000019354F8203C009354E90C0154E90A237E
:104FB000FFF770FF54F8303C5E65CEE7636A5A1C19
:104FC0000DD023EAE37300213846C3FB060151EA02
:104FD000C333D4F8008004D1404600F071FA303475
:104FE000C9E74FF47A720023FBF78AF802460B46B2
:104FF00008F11800494600F0D3FCF0E7D401002086
:10500000D40100208175000008B50B4C0B4D4FF00A
:105010002002EFF3118382F31288BFF36F8F02F047
:105020003EFB2B78A06113B9FCF7ECFFEFE7FCF730
:105030003FFE0028EBD1F7E7001100204C170020BD
:105040002DE9F341044617461E464FF02003EFF3C7
:10505000118883F31288BFF36F8FC368324A6BB134
:1050600080689168884219D057EA060318D188F3FE
:105070001188BFF36F8F6FF00F000CE0916891F90A
:105080000E1021610133E3609368A36088F31188F7
:10509000BFF36F8F002002B0BDE8F0812169F0E717
:1050A00091F90E1090F90E309942A8BF19466FF091
:1050B0007E029142B8BF11468B422EDD02F0F7F915
:1050C0000546CDE9007619482246414600F054FADB
:1050D0000028E0D04FF02003EFF3118683F312880D
:1050E000BFF36F8F236821699C420AD04BB193F9BB
:1050F0000E309942A8BF19466FF07E039942B8BF9F
:105100001946A06802F0D3F900B945B10748314605
:1051100000F0DEF86FF00A00BDE70025D1E786F366
:105120001188BFF36F8FF5E7001100204D170020A5
:1051300038B583680446002B32D01C4A92689342EB
:1051400031D1DA7B013ADA73C368012B05D9013B0F
:10515000C36000F09FFA002038BD4FF02003EFF34A
:10516000118583F31288BFF36F8F0169806802F0A5
:105170009EF9204602F065FAA06058B190F90E2021
:1051800022610022826702F0EBF90948294600F00B
:105190009FF8DEE7E06085F31188BFF36F8FD8E7F3
:1051A0006FF01500D8E74FF0FF30D5E70011002071
:1051B0004D17002038B504464FF02003EFF311855A
:1051C00083F31288BFF36F8F02F03BFA48B10022DD
:1051D000826702F0C5F929460548BDE8384000F06D
:1051E00077B8D4E902329A4218BF0133A360F2E7DC
:1051F0004D17002013B54FF02004EFF3118184F315
:105200001288BFF36F8F846844B1013C846081F3DE
:105210001188BFF36F8F002002B010BD52EA030463
:1052200006D181F31188BFF36F8F6FF00F00F3E7A2
:10523000CDE900230246024800F09EF9ECE700BFEA
:105240004D17002038B5074D2C6854B1FEF738FED5
:10525000054B04441C6128680021BDE8384002F079
:105260002EBA38BD3011002000110020F8B50446D8
:105270000D464FF02003EFF3118783F31288BFF33D
:105280006F8F104E00214FF4004C40F2E730316137
:1052900000234FF47A72E4FB0C01FAF731FF002C83
:1052A000094B0ADC1860094BB0681D60FFF7CAFFA4
:1052B00087F31188BFF36F8FF8BD0228B8BF0220B3
:1052C000F0E700BF00110020301100202C11002059
:1052D00049B9EFF3058030B9054BDA699B689A420A
:1052E00001D0FCF763BF81F31188BFF36F8F704764
:1052F000001100204FF02003EFF3118183F3128897
:10530000BFF36F8F044B9A68D37B013BD37381F358
:105310001188BFF36F8F70470011002038B5024627
:105320000C480D4D02F016F9044600B9EC68AB6864
:105330004AB95A7BD20606D1A26922B9DA897F2AF4
:1053400001D9EB6138BD9C4202D02046FFF77AFFBD
:10535000EC61F7E7201100200011002070B590F9F2
:105360000D20437B002A014604DA03F07F034373D8
:1053700002F0B8F84B7B154A63F07F034B73D2E918
:10538000083402F12005AB421BD0D3B191F90E6075
:1053900093F90E0086420FD0801B00280CDD586860
:1053A000C1E90030016059609068431A5842BDE875
:1053B00070405841FFF7B2BFA34202D01B68002BD8
:1053C000E6D1C1E9005421605162EDE700110020EF
:1053D00038B54FF02003EFF3118583F31288BFF344
:1053E0006F8F174B174A9C6811688C4207D1204673
:1053F000FFF728FF85F31188BFF36F8F38BD0021B9
:105400001160114A1268C2B1E2897F2A15D8627B05
:10541000D20612D10D4A94F90E10126891420CDB9B
:105420000B4A944209D01A69824203DC2046FFF7F6
:1054300095FFDCE7121A1A61DCE70022FBE700BFE8
:105440000011002028110020301100202C11002014
:10545000D008002070B490F90D20437B002A2ADB8D
:10546000DA0628D1826932BB144A63F07F034373A2
:10547000D2E9083402F12005AB4217D0B3B190F95C
:105480000E6093F90E108E420BD0891B002908DDA7
:105490005A68C0E900321060586070BC0020FFF705
:1054A0003DBFA34202D01B68002BEAD1C0E90054E3
:1054B00020605062F1E770BC704700BF001100200F
:1054C00010B54FF02002EFF3118482F31288BFF37E
:1054D0006F8F427B510704D484F31188BFF36F8F21
:1054E00010BD22F004024273FFF7B4FF21460248C8
:1054F000BDE81040FFF7ECBE4D17002008B590F94D
:105500000D20437B002A014604DA03F07F03437336
:1055100001F0E8FF044B9868431A58425841BDE82F
:105520000840FFF7FBBE00BF001100202DE9F0414D
:10553000064615461C464FF02003EFF3118783F310
:105540001288BFF36F8F02F03DF887F31188BFF325
:105550006F8FB4F1FF3F08BFB5F1FF3F08D02A4677
:10556000234606F118000349BDE8F04100F018BADF
:10557000BDE8F0818175000010B5074B9868074BB6
:105580000C4618601146DDE90223FFF7CFFF2046E5
:10559000BDE81040FCF70ABE0011002028110020D1
:1055A000F8B504464FF02003EFF3118683F3128819
:1055B000BFF36F8F437BDA0649B233D182698ABB6E
:1055C00003F07F03437301F08DFF437B174A817320
:1055D00063F07F034373104650F8203F83421BD093
:1055E000D3B1576A93F90E50A94210D06D1A002D0D
:1055F0000DDD5A68C4E9003214605C600120FFF7D9
:105600008DFE012086F31188BFF36F8FF8BDBB427A
:1056100002D01B68002BE5D1536AC4E900031C606B
:105620005462EBE7A1730020ECE700BF00110020FB
:1056300070B50446183002F01CF84FF02003EFF369
:10564000118683F31288BFF36F8F94F90D20637B6B
:10565000002A05DA03F07F036373204601F042FF5E
:105660000B4D637BA86843F010036373031B584220
:105670005841FFF753FE86F31188BFF36F8FAB6875
:10568000A34203D1BDE8704001F05ABF70BD00BF16
:105690000011002010B54FF02003EFF3118483F3C5
:1056A0001288BFF36F8F084B9A68D37B0133D37393
:1056B0000020FFF733FE84F31188BFF36F8FBDE83E
:1056C000104001F03DBF00BF00110020044B00213D
:1056D00003F12002C3E908220846FFF7C7BD00BF57
:1056E00000110020F8B54FF02003EFF3118583F38C
:1056F0001288BFF36F8F1A498868437B03F07F03DA
:10570000437301F0EFFE8B685A7B084662F07F021C
:105710005A7350F8202F82421CD0DAB14F6A93F9A5
:105720000E6092F90E40A6420FD0A41B002C0CDD97
:105730005168C3E900210B6053600120FFF7EEFDC3
:105740002846BDE8F840FCF731BDBA4202D01268E5
:10575000002AE6D14A6AC3E9000213604B62ECE713
:105760000011002050EA01032DE9F04105460E46E4
:1057700003D1FFF7B7FF002033E06FF00104241AD4
:105780004FF0FF3363EB0103012C73F1000302DAE6
:1057900001F0AFFF44194FF02003EFF3118883F3BA
:1057A0001288BFF36F8F104F104BB8681860FFF767
:1057B000A5FEB8680E492A463346183000F0F0F8C6
:1057C000BA68537B43F0100353734046FCF7EEFC7A
:1057D00001F08FFF201A63EB0303012873F100032C
:1057E000C9DBBDE8F08100BF0011002028110020B6
:1057F00081750000B1F1FF3F08BFB0F1FF3F08B570
:1058000006D1084B9868FFF713FF4FF0FF3008BD33
:10581000FFF7A8FF4FF47A7380FB0303C00B40EA45
:105820004340F4E700110020014B9868704700BF27
:10583000001100202DE9F04104464FF02003EFF362
:10584000118683F31288BFF36F8F437B1A0705D548
:1058500086F31188BFF36F8FBDE8F08123F020023B
:1058600042F00801D20920D14173A36813B1204648
:1058700001F040FE04F1180001F0FBFE04F15807AE
:105880004FF00008A56DBD4200D0B5B90120FFF76B
:1058900045FD104B9B68A342DAD1EFF30583002B43
:1058A000D6D13046FCF782FCD2E703F05F0343F029
:1058B0000803437301F016FED7E7284601F01AFEED
:1058C00005F1180001F0D5FEC5F878802846FFF7ED
:1058D000C1FDD7E70011002008B50648064A074970
:1058E000121A01F08CFDBDE80840054A054906483A
:1058F00001F085BD0000002048020020DC8400008B
:1059000000000000DC84000000000020034B1B6846
:105910000BB9FEF7D5BA0020704700BF3411002044
:10592000104B10B51C689C4208BF0024FFF7EEFF27
:10593000A4B1D4E904321B1A62EBE070B3F1004F5A
:1059400070F100020ADA0028ACBF18460020064BAE
:105950001B6913B19842A8BF184610BD6FF00040F4
:10596000F5E700BFE80000200011002030B5036813
:1059700068B10A4A5268904209D043B1D3E9042180
:10598000D0E90445121941EB0501C3E9042142683D
:1059900013605A600023C0E9003330BDE8000020E6
:1059A000B3F1FF3F08BFB2F1FF3FF8B504461F4611
:1059B000154667D081604FF02003EFF3118683F323
:1059C0001288BFF36F8F6FF00102531B4FF0FF3C43
:1059D0006CEB0703002B1BDB2B4BD3E90013521A94
:1059E0006CEB0303551B63EB0703012D73F10002FE
:1059F000BCBF01250023C0E904532448D0E9003C82
:105A0000834218D1C4E9000CCCF80040446026E081
:105A1000FFF77CFF013547F100072D1847EBE077D2
:105A2000C4E90457E9E7521A65EB07059C45C4E948
:105A30000425E7D01B68002BE4D0D3E90417D4E990
:105A400004258A4275EB070EEDDA8A1A67EB050525
:105A5000C3E904255A68C4E9003214605C60036835
:105A600083420BD09C4209D1FFF75AFF18B1084B73
:105A70001B69834202D00021FEF7F0F986F31188FA
:105A8000BFF36F8FF8BD00BFD0090020E8000020F1
:105A9000001100202DE9F8430546FFF799FC4FF06F
:105AA0002003EFF3118483F31288BFF36F8F244E2A
:105AB000DFF890803560244DD8F80000326840450A
:105AC000D5E9001E4FEAE2770BD050B1D0E9043C93
:105AD0009A4277EB0C0916DA9B1A6CEB070CC0E9BB
